{
  "address": "0xd018A58F4b18AF35F1626474e622E82480C4489a",
  "abi": [
    {
      "inputs": [
        {
          "internalType": "address",
          "name": "priceFeed",
          "type": "address"
        }
      ],
      "stateMutability": "nonpayable",
      "type": "constructor"
    },
    {
      "inputs": [],
      "name": "FundMe__NotOwner",
      "type": "error"
    },
    {
      "inputs": [],
      "name": "cheaperWithdraw",
      "outputs": [],
      "stateMutability": "payable",
      "type": "function"
    },
    {
      "inputs": [],
      "name": "fund",
      "outputs": [],
      "stateMutability": "payable",
      "type": "function"
    },
    {
      "inputs": [],
      "name": "getVersion",
      "outputs": [
        {
          "internalType": "uint256",
          "name": "",
          "type": "uint256"
        }
      ],
      "stateMutability": "view",
      "type": "function"
    },
    {
      "inputs": [
        {
          "internalType": "address",
          "name": "",
          "type": "address"
        }
      ],
      "name": "s_addressToAmountFunded",
      "outputs": [
        {
          "internalType": "uint256",
          "name": "",
          "type": "uint256"
        }
      ],
      "stateMutability": "view",
      "type": "function"
    },
    {
      "inputs": [
        {
          "internalType": "uint256",
          "name": "",
          "type": "uint256"
        }
      ],
      "name": "s_funders",
      "outputs": [
        {
          "internalType": "address",
          "name": "",
          "type": "address"
        }
      ],
      "stateMutability": "view",
      "type": "function"
    },
    {
      "inputs": [],
      "name": "s_owner",
      "outputs": [
        {
          "internalType": "address",
          "name": "",
          "type": "address"
        }
      ],
      "stateMutability": "view",
      "type": "function"
    },
    {
      "inputs": [],
      "name": "s_priceFeed",
      "outputs": [
        {
          "internalType": "contract AggregatorV3Interface",
          "name": "",
          "type": "address"
        }
      ],
      "stateMutability": "view",
      "type": "function"
    },
    {
      "inputs": [],
      "name": "withdraw",
      "outputs": [],
      "stateMutability": "payable",
      "type": "function"
    }
  ],
  "transactionHash": "0x30dea3a0c02bce7cfdbea65cb310309fa3b5f25eb13913cf81dc504ea64ce2de",
  "args": [
    "0x694AA1769357215DE4FAC081bf1f309aDC325306"
  ],
  "numDeployments": 2,
  "solcInputHash": "23316a4f9cfe38477908a36a208a6541",
  "bytecode": "0x60806040523480156200001157600080fd5b50604051620010dc380380620010dc83398181016040528101906200003791906200012a565b80600360006101000a81548173ffffffffffffffffffffffffffffffffffffffff021916908373ffffffffffffffffffffffffffffffffffffffff16021790555033600260006101000a81548173ffffffffffffffffffffffffffffffffffffffff021916908373ffffffffffffffffffffffffffffffffffffffff160217905550506200015c565b600080fd5b600073ffffffffffffffffffffffffffffffffffffffff82169050919050565b6000620000f282620000c5565b9050919050565b6200010481620000e5565b81146200011057600080fd5b50565b6000815190506200012481620000f9565b92915050565b600060208284031215620001435762000142620000c0565b5b6000620001538482850162000113565b91505092915050565b610f70806200016c6000396000f3fe60806040526004361061007b5760003560e01c806354861af71161004e57806354861af71461011d578063b60d42881461015a578063be2693f014610164578063e39782401461016e5761007b565b80630d8e6e2c146100805780630ec3b027146100ab5780631bf6132d146100d65780633ccfd60b14610113575b600080fd5b34801561008c57600080fd5b50610095610199565b6040516100a291906109bd565b60405180910390f35b3480156100b757600080fd5b506100c0610231565b6040516100cd9190610a57565b60405180910390f35b3480156100e257600080fd5b506100fd60048036038101906100f89190610ab5565b610257565b60405161010a91906109bd565b60405180910390f35b61011b61026f565b005b34801561012957600080fd5b50610144600480360381019061013f9190610b0e565b61044b565b6040516101519190610b4a565b60405180910390f35b61016261048a565b005b61016c6105ca565b005b34801561017a57600080fd5b5061018361080a565b6040516101909190610b4a565b60405180910390f35b6000600360009054906101000a900473ffffffffffffffffffffffffffffffffffffffff1673ffffffffffffffffffffffffffffffffffffffff166354fd4d506040518163ffffffff1660e01b8152600401602060405180830381865afa158015610208573d6000803e3d6000fd5b505050506040513d601f19601f8201168201806040525081019061022c9190610b7a565b905090565b600360009054906101000a900473ffffffffffffffffffffffffffffffffffffffff1681565b60006020528060005260406000206000915090505481565b600260009054906101000a900473ffffffffffffffffffffffffffffffffffffffff1673ffffffffffffffffffffffffffffffffffffffff163373ffffffffffffffffffffffffffffffffffffffff16146102f6576040517f579610db00000000000000000000000000000000000000000000000000000000815260040160405180910390fd5b3373ffffffffffffffffffffffffffffffffffffffff166108fc479081150290604051600060405180830381858888f1935050505015801561033c573d6000803e3d6000fd5b5060005b6001805490508110156103e85760006001828154811061036357610362610ba7565b5b9060005260206000200160009054906101000a900473ffffffffffffffffffffffffffffffffffffffff16905060008060008373ffffffffffffffffffffffffffffffffffffffff1673ffffffffffffffffffffffffffffffffffffffff168152602001908152602001600020819055505080806103e090610c05565b915050610340565b50600067ffffffffffffffff81111561040457610403610c4d565b5b6040519080825280602002602001820160405280156104325781602001602082028036833780820191505090505b50600190805190602001906104489291906108fd565b50565b6001818154811061045b57600080fd5b906000526020600020016000915054906101000a900473ffffffffffffffffffffffffffffffffffffffff1681565b60006802b5e3af16b18800009050806104ce600360009054906101000a900473ffffffffffffffffffffffffffffffffffffffff163461083090919063ffffffff16565b101561050f576040517f08c379a000000000000000000000000000000000000000000000000000000000815260040161050690610cd9565b60405180910390fd5b346000803373ffffffffffffffffffffffffffffffffffffffff1673ffffffffffffffffffffffffffffffffffffffff168152602001908152602001600020600082825461055d9190610cf9565b925050819055506001339080600181540180825580915050600190039060005260206000200160009091909190916101000a81548173ffffffffffffffffffffffffffffffffffffffff021916908373ffffffffffffffffffffffffffffffffffffffff16021790555050565b600260009054906101000a900473ffffffffffffffffffffffffffffffffffffffff1673ffffffffffffffffffffffffffffffffffffffff163373ffffffffffffffffffffffffffffffffffffffff1614610651576040517f579610db00000000000000000000000000000000000000000000000000000000815260040160405180910390fd5b3373ffffffffffffffffffffffffffffffffffffffff166108fc479081150290604051600060405180830381858888f19350505050158015610697573d6000803e3d6000fd5b506000600180548060200260200160405190810160405280929190818152602001828054801561071c57602002820191906000526020600020905b8160009054906101000a900473ffffffffffffffffffffffffffffffffffffffff1673ffffffffffffffffffffffffffffffffffffffff16815260200190600101908083116106d2575b5050505050905060005b81518110156107a657600082828151811061074457610743610ba7565b5b6020026020010151905060008060008373ffffffffffffffffffffffffffffffffffffffff1673ffffffffffffffffffffffffffffffffffffffff1681526020019081526020016000208190555050808061079e90610c05565b915050610726565b50600067ffffffffffffffff8111156107c2576107c1610c4d565b5b6040519080825280602002602001820160405280156107f05781602001602082028036833780820191505090505b50600190805190602001906108069291906108fd565b5050565b600260009054906101000a900473ffffffffffffffffffffffffffffffffffffffff1681565b60008061083c8361086c565b90506000670de0b6b3a764000085836108559190610d2d565b61085f9190610d9e565b9050809250505092915050565b6000808273ffffffffffffffffffffffffffffffffffffffff1663feaf968c6040518163ffffffff1660e01b815260040160a060405180830381865afa1580156108ba573d6000803e3d6000fd5b505050506040513d601f19601f820116820180604052508101906108de9190610e47565b5050509150506402540be400816108f59190610ec2565b915050919050565b828054828255906000526020600020908101928215610976579160200282015b828111156109755782518260006101000a81548173ffffffffffffffffffffffffffffffffffffffff021916908373ffffffffffffffffffffffffffffffffffffffff1602179055509160200191906001019061091d565b5b5090506109839190610987565b5090565b5b808211156109a0576000816000905550600101610988565b5090565b6000819050919050565b6109b7816109a4565b82525050565b60006020820190506109d260008301846109ae565b92915050565b600073ffffffffffffffffffffffffffffffffffffffff82169050919050565b6000819050919050565b6000610a1d610a18610a13846109d8565b6109f8565b6109d8565b9050919050565b6000610a2f82610a02565b9050919050565b6000610a4182610a24565b9050919050565b610a5181610a36565b82525050565b6000602082019050610a6c6000830184610a48565b92915050565b600080fd5b6000610a82826109d8565b9050919050565b610a9281610a77565b8114610a9d57600080fd5b50565b600081359050610aaf81610a89565b92915050565b600060208284031215610acb57610aca610a72565b5b6000610ad984828501610aa0565b91505092915050565b610aeb816109a4565b8114610af657600080fd5b50565b600081359050610b0881610ae2565b92915050565b600060208284031215610b2457610b23610a72565b5b6000610b3284828501610af9565b91505092915050565b610b4481610a77565b82525050565b6000602082019050610b5f6000830184610b3b565b92915050565b600081519050610b7481610ae2565b92915050565b600060208284031215610b9057610b8f610a72565b5b6000610b9e84828501610b65565b91505092915050565b7f4e487b7100000000000000000000000000000000000000000000000000000000600052603260045260246000fd5b7f4e487b7100000000000000000000000000000000000000000000000000000000600052601160045260246000fd5b6000610c10826109a4565b91507fffffffffffffffffffffffffffffffffffffffffffffffffffffffffffffffff8203610c4257610c41610bd6565b5b600182019050919050565b7f4e487b7100000000000000000000000000000000000000000000000000000000600052604160045260246000fd5b600082825260208201905092915050565b7f596f75206e65656420746f207370656e64206d6f726520455448210000000000600082015250565b6000610cc3601b83610c7c565b9150610cce82610c8d565b602082019050919050565b60006020820190508181036000830152610cf281610cb6565b9050919050565b6000610d04826109a4565b9150610d0f836109a4565b9250828201905080821115610d2757610d26610bd6565b5b92915050565b6000610d38826109a4565b9150610d43836109a4565b9250828202610d51816109a4565b91508282048414831517610d6857610d67610bd6565b5b5092915050565b7f4e487b7100000000000000000000000000000000000000000000000000000000600052601260045260246000fd5b6000610da9826109a4565b9150610db4836109a4565b925082610dc457610dc3610d6f565b5b828204905092915050565b600069ffffffffffffffffffff82169050919050565b610dee81610dcf565b8114610df957600080fd5b50565b600081519050610e0b81610de5565b92915050565b6000819050919050565b610e2481610e11565b8114610e2f57600080fd5b50565b600081519050610e4181610e1b565b92915050565b600080600080600060a08688031215610e6357610e62610a72565b5b6000610e7188828901610dfc565b9550506020610e8288828901610e32565b9450506040610e9388828901610b65565b9350506060610ea488828901610b65565b9250506080610eb588828901610dfc565b9150509295509295909350565b6000610ecd82610e11565b9150610ed883610e11565b9250828202610ee681610e11565b91507f80000000000000000000000000000000000000000000000000000000000000008414600084121615610f1e57610f1d610bd6565b5b8282058414831517610f3357610f32610bd6565b5b509291505056fea2646970667358221220d89cb781db1730b1655c28bd9933bd39aa657fdb9e415496371aaf8a3d094b7564736f6c63430008120033",
  "devdoc": {
    "author": "0013",
    "details": "this implements price feeds as our library",
    "kind": "dev",
    "methods": {
      "fund()": {
        "details": "this implements price feeds as our library"
      }
    },
    "title": "A Contact for crown funding",
    "version": 1
  },
  "userdoc": {
    "kind": "user",
    "methods": {
      "fund()": {
        "notice": "this function funds this contract"
      }
    },
    "notice": "This contract is to demo a sample funding contract",
    "version": 1
  },
  "storageLayout": {
    "storage": [
      {
        "astId": 58,
        "contract": "contracts/FundMe.sol:FundMe",
        "label": "s_addressToAmountFunded",
        "offset": 0,
        "slot": "0",
        "type": "t_mapping(t_address,t_uint256)"
      },
      {
        "astId": 61,
        "contract": "contracts/FundMe.sol:FundMe",
        "label": "s_funders",
        "offset": 0,
        "slot": "1",
        "type": "t_array(t_address)dyn_storage"
      },
      {
        "astId": 63,
        "contract": "contracts/FundMe.sol:FundMe",
        "label": "s_owner",
        "offset": 0,
        "slot": "2",
        "type": "t_address"
      },
      {
        "astId": 66,
        "contract": "contracts/FundMe.sol:FundMe",
        "label": "s_priceFeed",
        "offset": 0,
        "slot": "3",
        "type": "t_contract(AggregatorV3Interface)45"
      }
    ],
    "types": {
      "t_address": {
        "encoding": "inplace",
        "label": "address",
        "numberOfBytes": "20"
      },
      "t_array(t_address)dyn_storage": {
        "base": "t_address",
        "encoding": "dynamic_array",
        "label": "address[]",
        "numberOfBytes": "32"
      },
      "t_contract(AggregatorV3Interface)45": {
        "encoding": "inplace",
        "label": "contract AggregatorV3Interface",
        "numberOfBytes": "20"
      },
      "t_mapping(t_address,t_uint256)": {
        "encoding": "mapping",
        "key": "t_address",
        "label": "mapping(address => uint256)",
        "numberOfBytes": "32",
        "value": "t_uint256"
      },
      "t_uint256": {
        "encoding": "inplace",
        "label": "uint256",
        "numberOfBytes": "32"
      }
    }
  }
}