{
  "address": "0x368F855d61F4Dbd14bE1387FcB5Fdbfa95A2D209",
  "abi": [
    {
      "inputs": [
        {
          "internalType": "address",
          "name": "priceFeed",
          "type": "address"
        }
      ],
      "stateMutability": "nonpayable",
      "type": "constructor"
    },
    {
      "inputs": [],
      "name": "cheaperWithdraw",
      "outputs": [],
      "stateMutability": "payable",
      "type": "function"
    },
    {
      "inputs": [],
      "name": "fund",
      "outputs": [],
      "stateMutability": "payable",
      "type": "function"
    },
    {
      "inputs": [],
      "name": "getVersion",
      "outputs": [
        {
          "internalType": "uint256",
          "name": "",
          "type": "uint256"
        }
      ],
      "stateMutability": "view",
      "type": "function"
    },
    {
      "inputs": [
        {
          "internalType": "address",
          "name": "",
          "type": "address"
        }
      ],
      "name": "s_addressToAmountFunded",
      "outputs": [
        {
          "internalType": "uint256",
          "name": "",
          "type": "uint256"
        }
      ],
      "stateMutability": "view",
      "type": "function"
    },
    {
      "inputs": [
        {
          "internalType": "uint256",
          "name": "",
          "type": "uint256"
        }
      ],
      "name": "s_funders",
      "outputs": [
        {
          "internalType": "address",
          "name": "",
          "type": "address"
        }
      ],
      "stateMutability": "view",
      "type": "function"
    },
    {
      "inputs": [],
      "name": "s_owner",
      "outputs": [
        {
          "internalType": "address",
          "name": "",
          "type": "address"
        }
      ],
      "stateMutability": "view",
      "type": "function"
    },
    {
      "inputs": [],
      "name": "s_priceFeed",
      "outputs": [
        {
          "internalType": "contract AggregatorV3Interface",
          "name": "",
          "type": "address"
        }
      ],
      "stateMutability": "view",
      "type": "function"
    },
    {
      "inputs": [],
      "name": "withdraw",
      "outputs": [],
      "stateMutability": "payable",
      "type": "function"
    }
  ],
  "transactionHash": "0x9c5a7a35aac220ec0c08230e6b89cac937861e38e7cff13c7ce55b3ff7ff3b49",
  "args": [
    "0x694AA1769357215DE4FAC081bf1f309aDC325306"
  ],
  "numDeployments": 1,
  "solcInputHash": "4a9cfa254a295ae01c18bbb6b408a619",
  "bytecode": "0x608060405234801561001057600080fd5b5060405162001072380380620010728339818101604052810190610034919061011f565b80600360006101000a81548173ffffffffffffffffffffffffffffffffffffffff021916908373ffffffffffffffffffffffffffffffffffffffff16021790555033600260006101000a81548173ffffffffffffffffffffffffffffffffffffffff021916908373ffffffffffffffffffffffffffffffffffffffff1602179055505061014c565b600080fd5b600073ffffffffffffffffffffffffffffffffffffffff82169050919050565b60006100ec826100c1565b9050919050565b6100fc816100e1565b811461010757600080fd5b50565b600081519050610119816100f3565b92915050565b600060208284031215610135576101346100bc565b5b60006101438482850161010a565b91505092915050565b610f16806200015c6000396000f3fe60806040526004361061007b5760003560e01c806354861af71161004e57806354861af71461011d578063b60d42881461015a578063be2693f014610164578063e39782401461016e5761007b565b80630d8e6e2c146100805780630ec3b027146100ab5780631bf6132d146100d65780633ccfd60b14610113575b600080fd5b34801561008c57600080fd5b50610095610199565b6040516100a29190610963565b60405180910390f35b3480156100b757600080fd5b506100c0610231565b6040516100cd91906109fd565b60405180910390f35b3480156100e257600080fd5b506100fd60048036038101906100f89190610a5b565b610257565b60405161010a9190610963565b60405180910390f35b61011b61026f565b005b34801561012957600080fd5b50610144600480360381019061013f9190610ab4565b61041e565b6040516101519190610af0565b60405180910390f35b61016261045d565b005b61016c61059d565b005b34801561017a57600080fd5b506101836107b0565b6040516101909190610af0565b60405180910390f35b6000600360009054906101000a900473ffffffffffffffffffffffffffffffffffffffff1673ffffffffffffffffffffffffffffffffffffffff166354fd4d506040518163ffffffff1660e01b8152600401602060405180830381865afa158015610208573d6000803e3d6000fd5b505050506040513d601f19601f8201168201806040525081019061022c9190610b20565b905090565b600360009054906101000a900473ffffffffffffffffffffffffffffffffffffffff1681565b60006020528060005260406000206000915090505481565b600260009054906101000a900473ffffffffffffffffffffffffffffffffffffffff1673ffffffffffffffffffffffffffffffffffffffff163373ffffffffffffffffffffffffffffffffffffffff16146102c957600080fd5b3373ffffffffffffffffffffffffffffffffffffffff166108fc479081150290604051600060405180830381858888f1935050505015801561030f573d6000803e3d6000fd5b5060005b6001805490508110156103bb5760006001828154811061033657610335610b4d565b5b9060005260206000200160009054906101000a900473ffffffffffffffffffffffffffffffffffffffff16905060008060008373ffffffffffffffffffffffffffffffffffffffff1673ffffffffffffffffffffffffffffffffffffffff168152602001908152602001600020819055505080806103b390610bab565b915050610313565b50600067ffffffffffffffff8111156103d7576103d6610bf3565b5b6040519080825280602002602001820160405280156104055781602001602082028036833780820191505090505b506001908051906020019061041b9291906108a3565b50565b6001818154811061042e57600080fd5b906000526020600020016000915054906101000a900473ffffffffffffffffffffffffffffffffffffffff1681565b60006802b5e3af16b18800009050806104a1600360009054906101000a900473ffffffffffffffffffffffffffffffffffffffff16346107d690919063ffffffff16565b10156104e2576040517f08c379a00000000000000000000000000000000000000000000000000000000081526004016104d990610c7f565b60405180910390fd5b346000803373ffffffffffffffffffffffffffffffffffffffff1673ffffffffffffffffffffffffffffffffffffffff16815260200190815260200160002060008282546105309190610c9f565b925050819055506001339080600181540180825580915050600190039060005260206000200160009091909190916101000a81548173ffffffffffffffffffffffffffffffffffffffff021916908373ffffffffffffffffffffffffffffffffffffffff16021790555050565b600260009054906101000a900473ffffffffffffffffffffffffffffffffffffffff1673ffffffffffffffffffffffffffffffffffffffff163373ffffffffffffffffffffffffffffffffffffffff16146105f757600080fd5b3373ffffffffffffffffffffffffffffffffffffffff166108fc479081150290604051600060405180830381858888f1935050505015801561063d573d6000803e3d6000fd5b50600060018054806020026020016040519081016040528092919081815260200182805480156106c257602002820191906000526020600020905b8160009054906101000a900473ffffffffffffffffffffffffffffffffffffffff1673ffffffffffffffffffffffffffffffffffffffff1681526020019060010190808311610678575b5050505050905060005b815181101561074c5760008282815181106106ea576106e9610b4d565b5b6020026020010151905060008060008373ffffffffffffffffffffffffffffffffffffffff1673ffffffffffffffffffffffffffffffffffffffff1681526020019081526020016000208190555050808061074490610bab565b9150506106cc565b50600067ffffffffffffffff81111561076857610767610bf3565b5b6040519080825280602002602001820160405280156107965781602001602082028036833780820191505090505b50600190805190602001906107ac9291906108a3565b5050565b600260009054906101000a900473ffffffffffffffffffffffffffffffffffffffff1681565b6000806107e283610812565b90506000670de0b6b3a764000085836107fb9190610cd3565b6108059190610d44565b9050809250505092915050565b6000808273ffffffffffffffffffffffffffffffffffffffff1663feaf968c6040518163ffffffff1660e01b815260040160a060405180830381865afa158015610860573d6000803e3d6000fd5b505050506040513d601f19601f820116820180604052508101906108849190610ded565b5050509150506402540be4008161089b9190610e68565b915050919050565b82805482825590600052602060002090810192821561091c579160200282015b8281111561091b5782518260006101000a81548173ffffffffffffffffffffffffffffffffffffffff021916908373ffffffffffffffffffffffffffffffffffffffff160217905550916020019190600101906108c3565b5b509050610929919061092d565b5090565b5b8082111561094657600081600090555060010161092e565b5090565b6000819050919050565b61095d8161094a565b82525050565b60006020820190506109786000830184610954565b92915050565b600073ffffffffffffffffffffffffffffffffffffffff82169050919050565b6000819050919050565b60006109c36109be6109b98461097e565b61099e565b61097e565b9050919050565b60006109d5826109a8565b9050919050565b60006109e7826109ca565b9050919050565b6109f7816109dc565b82525050565b6000602082019050610a1260008301846109ee565b92915050565b600080fd5b6000610a288261097e565b9050919050565b610a3881610a1d565b8114610a4357600080fd5b50565b600081359050610a5581610a2f565b92915050565b600060208284031215610a7157610a70610a18565b5b6000610a7f84828501610a46565b91505092915050565b610a918161094a565b8114610a9c57600080fd5b50565b600081359050610aae81610a88565b92915050565b600060208284031215610aca57610ac9610a18565b5b6000610ad884828501610a9f565b91505092915050565b610aea81610a1d565b82525050565b6000602082019050610b056000830184610ae1565b92915050565b600081519050610b1a81610a88565b92915050565b600060208284031215610b3657610b35610a18565b5b6000610b4484828501610b0b565b91505092915050565b7f4e487b7100000000000000000000000000000000000000000000000000000000600052603260045260246000fd5b7f4e487b7100000000000000000000000000000000000000000000000000000000600052601160045260246000fd5b6000610bb68261094a565b91507fffffffffffffffffffffffffffffffffffffffffffffffffffffffffffffffff8203610be857610be7610b7c565b5b600182019050919050565b7f4e487b7100000000000000000000000000000000000000000000000000000000600052604160045260246000fd5b600082825260208201905092915050565b7f596f75206e65656420746f207370656e64206d6f726520455448210000000000600082015250565b6000610c69601b83610c22565b9150610c7482610c33565b602082019050919050565b60006020820190508181036000830152610c9881610c5c565b9050919050565b6000610caa8261094a565b9150610cb58361094a565b9250828201905080821115610ccd57610ccc610b7c565b5b92915050565b6000610cde8261094a565b9150610ce98361094a565b9250828202610cf78161094a565b91508282048414831517610d0e57610d0d610b7c565b5b5092915050565b7f4e487b7100000000000000000000000000000000000000000000000000000000600052601260045260246000fd5b6000610d4f8261094a565b9150610d5a8361094a565b925082610d6a57610d69610d15565b5b828204905092915050565b600069ffffffffffffffffffff82169050919050565b610d9481610d75565b8114610d9f57600080fd5b50565b600081519050610db181610d8b565b92915050565b6000819050919050565b610dca81610db7565b8114610dd557600080fd5b50565b600081519050610de781610dc1565b92915050565b600080600080600060a08688031215610e0957610e08610a18565b5b6000610e1788828901610da2565b9550506020610e2888828901610dd8565b9450506040610e3988828901610b0b565b9350506060610e4a88828901610b0b565b9250506080610e5b88828901610da2565b9150509295509295909350565b6000610e7382610db7565b9150610e7e83610db7565b9250828202610e8c81610db7565b91507f80000000000000000000000000000000000000000000000000000000000000008414600084121615610ec457610ec3610b7c565b5b8282058414831517610ed957610ed8610b7c565b5b509291505056fea2646970667358221220c6461bce84d13afd56a73b507afb7f9203bf1910d353534aa77ac2f71068d5c464736f6c63430008120033",
  "devdoc": {
    "kind": "dev",
    "methods": {},
    "version": 1
  },
  "userdoc": {
    "kind": "user",
    "methods": {},
    "version": 1
  },
  "storageLayout": {
    "storage": [
      {
        "astId": 56,
        "contract": "contracts/FundMe.sol:FundMe",
        "label": "s_addressToAmountFunded",
        "offset": 0,
        "slot": "0",
        "type": "t_mapping(t_address,t_uint256)"
      },
      {
        "astId": 59,
        "contract": "contracts/FundMe.sol:FundMe",
        "label": "s_funders",
        "offset": 0,
        "slot": "1",
        "type": "t_array(t_address)dyn_storage"
      },
      {
        "astId": 61,
        "contract": "contracts/FundMe.sol:FundMe",
        "label": "s_owner",
        "offset": 0,
        "slot": "2",
        "type": "t_address"
      },
      {
        "astId": 64,
        "contract": "contracts/FundMe.sol:FundMe",
        "label": "s_priceFeed",
        "offset": 0,
        "slot": "3",
        "type": "t_contract(AggregatorV3Interface)45"
      }
    ],
    "types": {
      "t_address": {
        "encoding": "inplace",
        "label": "address",
        "numberOfBytes": "20"
      },
      "t_array(t_address)dyn_storage": {
        "base": "t_address",
        "encoding": "dynamic_array",
        "label": "address[]",
        "numberOfBytes": "32"
      },
      "t_contract(AggregatorV3Interface)45": {
        "encoding": "inplace",
        "label": "contract AggregatorV3Interface",
        "numberOfBytes": "20"
      },
      "t_mapping(t_address,t_uint256)": {
        "encoding": "mapping",
        "key": "t_address",
        "label": "mapping(address => uint256)",
        "numberOfBytes": "32",
        "value": "t_uint256"
      },
      "t_uint256": {
        "encoding": "inplace",
        "label": "uint256",
        "numberOfBytes": "32"
      }
    }
  }
}